:100000000C942A000C943F000C943F000C943F0089
:100010000C943F000C943F000C943F000C943F0064
:100020000C943F000C943F000C943F000C943F0054
:100030000C943F000C943F000C943F000C943F0044
:100040000C943F000C943F000C943F000C943F0034
:100050000C943F0011241FBECFE5D4E0DEBFCDBF1E
:1000600010E0A0E6B0E0EAE8F6E002C005900D92EC
:10007000A639B107D9F70E9410010C9443030C94E0
:10008000000017B886B1836886B9089597B1907E4D
:1000900097B997B1892B87B9369A349BFECF349A9A
:1000A00024B135B1822F932F089594989698E9EF53
:1000B000F0E03197F1F700C00000959AE9EFF0E029
:1000C0003197F1F700C0000085BB89EF90E0019700
:1000D000F1F700C000009598E9EFF0E03197F1F7F3
:1000E00000C0000008958FEF84BB81B3806781BB9F
:1000F00088E30E9455008EE00E94550081E00E9436
:1001000055000895949A9698E9EFF0E03197F1F749
:1001100000C00000959AE9EFF0E03197F1F700C0D8
:10012000000085BB89EF90E00197F1F700C0000067
:100130009598E9EFF0E03197F1F700C000000895DD
:100140001F93CF93DF93EC018881882351F010E057
:100150000E9482001F5FFE01E10FF11D8081882354
:10016000B9F7DF91CF911F910895823051F083301C
:1001700018F4813081F40EC0833031F0843059F4AA
:1001800006C0962F905C07C0962F905F04C0962FF4
:10019000905B01C0962F892F80680E9455000895BA
:1001A000CF93DF93EA010E94B500CE010E94A00028
:1001B000DF91CF9108951F93142F0E94B500812FD6
:1001C0000E9482001F91089581E00E9455000895C9
:1001D0000F931F93DF93CF93CDB7DEB760970FB622
:1001E000F894DEBF0FBECDBF8E010F5F1F4FB80169
:1001F0004AE050E00E94FE02C8010E94A000609602
:100200000FB6F894DEBF0FBECDBFCF91DF911F9127
:100210000F91089512BE93B79A6693BF8CBF08954D
:100220004F925F926F927F928F929F92AF92BF9206
:10023000CF92DF92EF92FF920F931F93CF93DF93B2
:10024000B89AB99ABB9ABC9AC498C098C1980E94AF
:1002500073000E9441000E94E40080E690E00E944A
:10026000A00081E06AE043E40E94DB0082E060E0FD
:1002700048E650E00E94D0008CE00E9455000F2E0E
:10028000F0E78F2EF0E09F2EF02DC8E8D0E00F2E83
:10029000FEE74F2EF0E05F2EF02D0F2EF7E76F2ECA
:1002A000F0E07F2EF02D82E062E00E94B50080E059
:1002B0000E9446009C014EEE52E00E94EF020E9416
:1002C000610220E030ED4FEB54E40E94CD010E942A
:1002D0003502E62EF72E082F192F5701680181E00D
:1002E00067E00E94B500C7010E94E80089E1A816F6
:1002F000B104C104D10458F4C09AC1988AE50E949F
:100300000A0182E068E0A4010E94D000CCCFD801AD
:10031000C7014997A109B1098A309105A105B10525
:1003200058F4C09AC1988EE70E940A0182E068E002
:10033000A3010E94D000B7CFD601C5018397A109C0
:10034000B10985319105A105B10558F4C09AC1984C
:100350008FEF0E940A0182E068E0A2010E94D000B3
:10036000A2CFC09AC19A82E068E0AE010E94D0009C
:10037000C49A8FE39DE0A3E081509040A040E1F754
:1003800000C00000C4988FE39DE0A3E0815090403E
:10039000A040E1F700C0000086CF0CD0E6C0DED060
:1003A00040F0D5D030F021F45F3F19F0C7C05111B3
:1003B00010C1CAC0EBD098F39923C9F35523B1F308
:1003C000951B550BBB27AA2762177307840738F0C4
:1003D0009F5F5F4F220F331F441FAA1FA9F333D023
:1003E0000E2E3AF0E0E830D091505040E695001CD7
:1003F000CAF729D0FE2F27D0660F771F881FBB1F93
:10040000261737074807AB07B0E809F0BB0B802D6C
:10041000BF01FF2793585F4F2AF09E3F510568F0B8
:100420008DC0D7C05F3FECF3983EDCF3869577959F
:100430006795B795F7959F5FC9F7880F911D9695BA
:10044000879597F90895E1E0660F771F881FBB1F16
:10045000621773078407BA0720F0621B730B840BC3
:10046000BA0BEE1F88F7E095089598D088F09F5753
:1004700090F0B92F9927B751A0F0D1F0660F771FF0
:10048000881F991F1AF0BA95C9F712C0B13081F0D0
:100490009FD0B1E008959CC0672F782F8827B85F60
:1004A00039F0B93FCCF3869577956795B395D9F731
:1004B0003EF490958095709561957F4F8F4F9F4F3B
:1004C0000895E89409C097FB3EF490958095709547
:1004D00061957F4F8F4F9F4F9923A9F0F92F96E990
:1004E000BB279395F695879577956795B795F11105
:1004F000F8CFFAF4BB0F11F460FF1BC06F5F7F4FA2
:100500008F4F9F4F16C0882311F096E911C07723B3
:1005100021F09EE8872F762F05C0662371F096E8BC
:10052000862F70E060E02AF09A95660F771F881F8B
:10053000DAF7880F9695879597F9089597F99F6749
:1005400080E870E060E008959FEF80EC089500245B
:100550000A941616170618060906089500240A9428
:1005600012161306140605060895092E0394000CAE
:1005700011F4882352F0BB0F40F4BF2B11F460FF3D
:1005800004C06F5F7F4F8F4F9F4F089557FD905866
:10059000440F551F59F05F3F71F04795880F97FB47
:1005A000991F61F09F3F79F0879508951216130601
:1005B0001406551FF2CF4695F1DF08C01616170630
:1005C0001806991FF1CF8695710561050894089565
:1005D000E894BB2766277727CB0197F90895539FA7
:1005E000C001429FB001529F700D811D1124911DC9
:1005F000349F700D811D1124911D0895FB019F01F1
:10060000E8944230C4F04532B4F44A3029F497FB00
:100610001EF4909581959F4F642F77270E942F039A
:10062000805D8A330CF0895D8193CB010097A1F73F
:1006300016F45DE251931082C9010C941F03DC0192
:10064000FC01672F71917723E1F7329704C07C9109
:100650006D9370836291AE17BF07C8F30895AA1B0C
:10066000BB1B51E107C0AA1FBB1FA617B70710F09D
:10067000A61BB70B881F991F5A95A9F780959095CF
:0A068000BC01CD010895F894FFCFEE
:10068A0054656D70203D20007370656564203A00E2
:10069A004C4F57202020004D494455494D004849A8
:1006AA0047482020202020004D4F544F52206F46AB
:0606BA0046202020000094
:00000001FF
